{
  "contractName": "DAO",
  "abi": [
    {
      "inputs": [
        {
          "internalType": "uint256",
          "name": "_token",
          "type": "uint256"
        }
      ],
      "stateMutability": "nonpayable",
      "type": "constructor"
    },
    {
      "inputs": [
        {
          "internalType": "bytes32",
          "name": "",
          "type": "bytes32"
        }
      ],
      "name": "proposals",
      "outputs": [
        {
          "internalType": "address",
          "name": "author",
          "type": "address"
        },
        {
          "internalType": "bytes32",
          "name": "hash",
          "type": "bytes32"
        },
        {
          "internalType": "uint256",
          "name": "createdAt",
          "type": "uint256"
        },
        {
          "internalType": "uint256",
          "name": "votesYes",
          "type": "uint256"
        },
        {
          "internalType": "uint256",
          "name": "votesNo",
          "type": "uint256"
        },
        {
          "internalType": "enum DAO.Status",
          "name": "status",
          "type": "uint8"
        }
      ],
      "stateMutability": "view",
      "type": "function",
      "constant": true
    },
    {
      "inputs": [],
      "name": "token",
      "outputs": [
        {
          "internalType": "contract IERC20",
          "name": "",
          "type": "address"
        }
      ],
      "stateMutability": "view",
      "type": "function",
      "constant": true
    },
    {
      "inputs": [],
      "name": "totalShares",
      "outputs": [
        {
          "internalType": "uint256",
          "name": "",
          "type": "uint256"
        }
      ],
      "stateMutability": "view",
      "type": "function",
      "constant": true
    },
    {
      "inputs": [
        {
          "internalType": "address",
          "name": "",
          "type": "address"
        },
        {
          "internalType": "bytes32",
          "name": "",
          "type": "bytes32"
        }
      ],
      "name": "votes",
      "outputs": [
        {
          "internalType": "bool",
          "name": "",
          "type": "bool"
        }
      ],
      "stateMutability": "view",
      "type": "function",
      "constant": true
    },
    {
      "inputs": [
        {
          "internalType": "uint256",
          "name": "amount",
          "type": "uint256"
        }
      ],
      "name": "deposit",
      "outputs": [],
      "stateMutability": "nonpayable",
      "type": "function"
    },
    {
      "inputs": [
        {
          "internalType": "uint256",
          "name": "amount",
          "type": "uint256"
        }
      ],
      "name": "withdraw",
      "outputs": [],
      "stateMutability": "nonpayable",
      "type": "function"
    },
    {
      "inputs": [
        {
          "internalType": "bytes32",
          "name": "proposalHash",
          "type": "bytes32"
        }
      ],
      "name": "createProposal",
      "outputs": [],
      "stateMutability": "nonpayable",
      "type": "function"
    },
    {
      "inputs": [
        {
          "internalType": "bytes32",
          "name": "proposalHash",
          "type": "bytes32"
        },
        {
          "internalType": "enum DAO.Side",
          "name": "side",
          "type": "uint8"
        }
      ],
      "name": "vote",
      "outputs": [],
      "stateMutability": "nonpayable",
      "type": "function"
    }
  ],
  "bytecode": "0x608060405234801561001057600080fd5b50604051610d55380380610d558339818101604052602081101561003357600080fd5b810190808051906020019092919050505080600460006101000a81548173ffffffffffffffffffffffffffffffffffffffff021916908373ffffffffffffffffffffffffffffffffffffffff16021790555050610cc0806100956000396000f3fe608060405234801561001057600080fd5b50600436106100885760003560e01c80633a98ef391161005b5780633a98ef39146101d3578063b6b55f25146101f1578063c9a28cb91461021f578063fc0c546a1461025a57610088565b80631db5ade81461008d5780632542bf06146100f15780632e1a7d4d1461011f57806332ed5b121461014d575b600080fd5b6100d9600480360360408110156100a357600080fd5b81019080803573ffffffffffffffffffffffffffffffffffffffff1690602001909291908035906020019092919050505061028e565b60405180821515815260200191505060405180910390f35b61011d6004803603602081101561010757600080fd5b81019080803590602001909291905050506102bd565b005b61014b6004803603602081101561013557600080fd5b81019080803590602001909291905050506104ec565b005b6101796004803603602081101561016357600080fd5b81019080803590602001909291905050506106d0565b604051808773ffffffffffffffffffffffffffffffffffffffff1681526020018681526020018581526020018481526020018381526020018260028111156101bd57fe5b8152602001965050505050505060405180910390f35b6101db610739565b6040518082815260200191505060405180910390f35b61021d6004803603602081101561020757600080fd5b810190808035906020019092919050505061073f565b005b6102586004803603604081101561023557600080fd5b8101908080359060200190929190803560ff16906020019092919050505061088c565b005b610262610c3e565b604051808273ffffffffffffffffffffffffffffffffffffffff16815260200191505060405180910390f35b60016020528160005260406000206020528060005260406000206000915091509054906101000a900460ff1681565b68056bc75e2d63100000600260003373ffffffffffffffffffffffffffffffffffffffff1673ffffffffffffffffffffffffffffffffffffffff16815260200190815260200160002054101561035e576040517f08c379a0000000000000000000000000000000000000000000000000000000008152600401808060200182810382526026815260200180610c656026913960400191505060405180910390fd5b6000801b60008083815260200190815260200160002060010154146103eb576040517f08c379a000000000000000000000000000000000000000000000000000000000815260040180806020018281038252601c8152602001807f746869732070726f706f73616c20616c7265616479206578697374730000000081525060200191505060405180910390fd5b6040518060c001604052803373ffffffffffffffffffffffffffffffffffffffff16815260200182815260200142815260200160008152602001600081526020016000600281111561043957fe5b81525060008083815260200190815260200160002060008201518160000160006101000a81548173ffffffffffffffffffffffffffffffffffffffff021916908373ffffffffffffffffffffffffffffffffffffffff1602179055506020820151816001015560408201518160020155606082015181600301556080820151816004015560a08201518160050160006101000a81548160ff021916908360028111156104e157fe5b021790555090505050565b80600260003373ffffffffffffffffffffffffffffffffffffffff1673ffffffffffffffffffffffffffffffffffffffff1681526020019081526020016000205410156105a1576040517f08c379a00000000000000000000000000000000000000000000000000000000081526004018080602001828103825260128152602001807f696e73756666696369656e742066756e6473000000000000000000000000000081525060200191505060405180910390fd5b80600260003373ffffffffffffffffffffffffffffffffffffffff1673ffffffffffffffffffffffffffffffffffffffff1681526020019081526020016000206000828254039250508190555080600360008282540392505081905550600460009054906101000a900473ffffffffffffffffffffffffffffffffffffffff1673ffffffffffffffffffffffffffffffffffffffff1663a9059cbb33836040518363ffffffff1660e01b8152600401808373ffffffffffffffffffffffffffffffffffffffff16815260200182815260200192505050602060405180830381600087803b15801561069157600080fd5b505af11580156106a5573d6000803e3d6000fd5b505050506040513d60208110156106bb57600080fd5b81019080805190602001909291905050505050565b60006020528060005260406000206000915090508060000160009054906101000a900473ffffffffffffffffffffffffffffffffffffffff16908060010154908060020154908060030154908060040154908060050160009054906101000a900460ff16905086565b60035481565b80600260003373ffffffffffffffffffffffffffffffffffffffff1673ffffffffffffffffffffffffffffffffffffffff1681526020019081526020016000206000828254019250508190555080600360008282540192505081905550600460009054906101000a900473ffffffffffffffffffffffffffffffffffffffff1673ffffffffffffffffffffffffffffffffffffffff166323b872dd3330846040518463ffffffff1660e01b8152600401808473ffffffffffffffffffffffffffffffffffffffff1681526020018373ffffffffffffffffffffffffffffffffffffffff1681526020018281526020019350505050602060405180830381600087803b15801561084d57600080fd5b505af1158015610861573d6000803e3d6000fd5b505050506040513d602081101561087757600080fd5b81019080805190602001909291905050505050565b6000806000848152602001908152602001600020905060001515600160003373ffffffffffffffffffffffffffffffffffffffff1673ffffffffffffffffffffffffffffffffffffffff168152602001908152602001600020600085815260200190815260200160002060009054906101000a900460ff16151514610979576040517f08c379a000000000000000000000000000000000000000000000000000000000815260040180806020018281038252600d8152602001807f616c726561647920766f7465640000000000000000000000000000000000000081525060200191505060405180910390fd5b6000801b600080858152602001908152602001600020600101541415610a07576040517f08c379a00000000000000000000000000000000000000000000000000000000081526004018080602001828103825260178152602001807f70726f706f73616c20646f6573206e6f7420657869737400000000000000000081525060200191505060405180910390fd5b62093a80816002015401421115610a86576040517f08c379a00000000000000000000000000000000000000000000000000000000081526004018080602001828103825260128152602001807f766f74696e6720706572696f64206f766572000000000000000000000000000081525060200191505060405180910390fd5b60018060003373ffffffffffffffffffffffffffffffffffffffff1673ffffffffffffffffffffffffffffffffffffffff168152602001908152602001600020600085815260200190815260200160002060006101000a81548160ff02191690831515021790555060006001811115610afb57fe5b826001811115610b0757fe5b1415610ba557600260003373ffffffffffffffffffffffffffffffffffffffff1673ffffffffffffffffffffffffffffffffffffffff1681526020019081526020016000205481600301600082825401925050819055506032600354606483600301540281610b7257fe5b041115610ba05760018160050160006101000a81548160ff02191690836002811115610b9a57fe5b02179055505b610c39565b600260003373ffffffffffffffffffffffffffffffffffffffff1673ffffffffffffffffffffffffffffffffffffffff1681526020019081526020016000205481600401600082825401925050819055506032600354606483600401540281610c0a57fe5b041115610c385760028160050160006101000a81548160ff02191690836002811115610c3257fe5b02179055505b5b505050565b600460009054906101000a900473ffffffffffffffffffffffffffffffffffffffff168156fe6e6f7420656e6f7567682073686172657320746f2063726561746520612070726f706f73616ca2646970667358221220bb86bd4dfdc9a890f2d03e092295475e31e63be5f0642d0244c01e8acf067b4564736f6c63430007030033",
  "immutableReferences": {},
  "source": "pragma solidity ^0.7.3;\nimport \"@openzeppelin/contracts/token/ERC20/IERC20.sol\";\n\ncontract DAO {\n    /**\n        ANCHOR side represents the vote \n     */\n\n    enum Side {\n        Yes,\n        No\n    }\n\n    enum Status {\n        Undecided,\n        Approved,\n        Rejected\n    }\n    struct Proposal {\n        address author;\n        bytes32 hash;\n        uint256 createdAt;\n        uint256 votesYes;\n        uint256 votesNo;\n        Status status;\n    }\n    mapping(bytes32 => Proposal) public proposals;\n    /**\n        ANCHOR\n             address is the address of the investor,\n             bytes is the hash of the proposal,\n             this identifies if an investor has already voted for a proposal\n             example address[1][proposal2]\n     */\n    mapping(address => mapping(bytes32 => bool)) public votes;\n    mapping(address => uint256) shares;\n    uint256 public totalShares;\n    IERC20 public token;\n\n    uint256 constant CREATE_PROPOSAL_MIN_SHARE = 100 * 10**18;\n    uint256 constant VOTING_PERIOD = 7 days;\n\n    constructor(uint256 _token) {\n        token = IERC20(_token);\n    }\n\n    function deposit(uint256 amount) external {\n        shares[msg.sender] += amount;\n        totalShares += amount;\n        token.transferFrom(msg.sender, address(this), amount);\n    }\n\n    function withdraw(uint256 amount) external {\n        require(shares[msg.sender] >= amount, \"insufficient funds\");\n        shares[msg.sender] -= amount;\n        totalShares -= amount;\n        token.transfer(msg.sender, amount);\n    }\n\n    function createProposal(bytes32 proposalHash) external {\n        require(\n            shares[msg.sender] >= CREATE_PROPOSAL_MIN_SHARE,\n            \"not enough shares to create a proposal\"\n        );\n        require(\n            proposals[proposalHash].hash == bytes32(0),\n            \"this proposal already exists\"\n        );\n        proposals[proposalHash] = Proposal(\n            msg.sender,\n            proposalHash,\n            block.timestamp,\n            0,\n            0,\n            Status.Undecided\n        );\n    }\n\n    function vote(bytes32 proposalHash, Side side) external {\n        Proposal storage proposal = proposals[proposalHash];\n        require(votes[msg.sender][proposalHash] == false, \"already voted\");\n        require(\n            proposals[proposalHash].hash != bytes32(0),\n            \"proposal does not exist\"\n        );\n        require(\n            block.timestamp <= proposal.createdAt + VOTING_PERIOD,\n            \"voting period over\"\n        );\n        votes[msg.sender][proposalHash] = true;\n        if (side == Side.Yes) {\n            proposal.votesYes += shares[msg.sender];\n\n            if ((proposal.votesYes * 100) / totalShares > 50) {\n                proposal.status = Status.Approved;\n            }\n        } else {\n            proposal.votesNo += shares[msg.sender];\n            if ((proposal.votesNo * 100) / totalShares > 50) {\n                proposal.status = Status.Rejected;\n            }\n        }\n    }\n}\n",
  "sourcePath": "/Users/fabriciopolicarpo/Desktop/Projects/eat-the-blocks/fundamentals/DAO/contracts/DAO.sol",
  "compiler": {
    "name": "solc",
    "version": "0.7.3+commit.9bfce1f6.Emscripten.clang"
  },
  "schemaVersion": "3.4.1",
  "updatedAt": "2021-07-02T00:31:16.565Z",
  "networkType": "ethereum",
  "devdoc": {
    "kind": "dev",
    "methods": {},
    "version": 1
  },
  "userdoc": {
    "kind": "user",
    "methods": {
      "votes(address,bytes32)": {
        "notice": "ANCHOR address is the address of the investor, bytes is the hash of the proposal, this identifies if an investor has already voted for a proposal example address[1][proposal2]"
      }
    },
    "version": 1
  }
}