{
  "contractName": "FlashLoanUser",
  "abi": [
    {
      "inputs": [
        {
          "internalType": "address",
          "name": "flashLoanProvider",
          "type": "address"
        },
        {
          "internalType": "uint256",
          "name": "amount",
          "type": "uint256"
        },
        {
          "internalType": "address",
          "name": "token",
          "type": "address"
        }
      ],
      "name": "startFlashLoan",
      "outputs": [],
      "stateMutability": "nonpayable",
      "type": "function"
    },
    {
      "inputs": [
        {
          "internalType": "uint256",
          "name": "amount",
          "type": "uint256"
        },
        {
          "internalType": "address",
          "name": "token",
          "type": "address"
        },
        {
          "internalType": "bytes",
          "name": "data",
          "type": "bytes"
        }
      ],
      "name": "flashLoanCallback",
      "outputs": [],
      "stateMutability": "nonpayable",
      "type": "function"
    }
  ],
  "bytecode": "0x608060405234801561001057600080fd5b506103c4806100206000396000f3fe608060405234801561001057600080fd5b50600436106100365760003560e01c8063158a578d1461003b578063960af7bf146100a9575b600080fd5b6100a76004803603606081101561005157600080fd5b81019080803573ffffffffffffffffffffffffffffffffffffffff16906020019092919080359060200190929190803573ffffffffffffffffffffffffffffffffffffffff16906020019092919050505061018e565b005b61018c600480360360608110156100bf57600080fd5b8101908080359060200190929190803573ffffffffffffffffffffffffffffffffffffffff1690602001909291908035906020019064010000000081111561010657600080fd5b82018360208201111561011857600080fd5b8035906020019184600183028401116401000000008311171561013a57600080fd5b91908080601f016020809104026020016040519081016040528093929190818152602001838380828437600081840152601f19601f8201169050808301925050505050505091929192905050506102dc565b005b8273ffffffffffffffffffffffffffffffffffffffff1663111f939e3084846040518060400160405280600881526020017f706179206261636b0000000000000000000000000000000000000000000000008152506040518563ffffffff1660e01b8152600401808573ffffffffffffffffffffffffffffffffffffffff1681526020018481526020018373ffffffffffffffffffffffffffffffffffffffff16815260200180602001828103825283818151815260200191508051906020019080838360005b83811015610270578082015181840152602081019050610255565b50505050905090810190601f16801561029d5780820380516001836020036101000a031916815260200191505b5095505050505050600060405180830381600087803b1580156102bf57600080fd5b505af11580156102d3573d6000803e3d6000fd5b50505050505050565b8173ffffffffffffffffffffffffffffffffffffffff1663a9059cbb33856040518363ffffffff1660e01b8152600401808373ffffffffffffffffffffffffffffffffffffffff16815260200182815260200192505050602060405180830381600087803b15801561034d57600080fd5b505af1158015610361573d6000803e3d6000fd5b505050506040513d602081101561037757600080fd5b81019080805190602001909291905050505050505056fea2646970667358221220daf05da6ab4af769be653775161545712e20f7197c6564e88bdc6856c9b994ce64736f6c63430007030033",
  "immutableReferences": {},
  "source": "pragma solidity 0.7.3;\nimport \"./IFlashLoanUser.sol\";\nimport \"./FlashLoanProvider.sol\";\nimport \"@openzeppelin/contracts/token/ERC20/IERC20.sol\";\n\ncontract FlashLoanUser is IFlashLoanUser {\n    function startFlashLoan(\n        address flashLoanProvider,\n        uint256 amount,\n        address token\n    ) external {\n        FlashLoanProvider(flashLoanProvider).executeFlashLoan(\n            address(this),\n            amount,\n            token,\n            bytes(\"pay back\")\n        );\n    }\n\n    function flashLoanCallback(\n        uint256 amount,\n        address token,\n        bytes memory data\n    ) external override {\n        //do some arbitrage, liquidation, etc\n        IERC20(token).transfer(msg.sender, amount);\n    }\n}\n",
  "sourcePath": "/Users/fabriciopolicarpo/Desktop/Projects/eat-the-blocks/fundamentals/flash_loans/contracts/FlashLoanUser.sol",
  "compiler": {
    "name": "solc",
    "version": "0.7.3+commit.9bfce1f6.Emscripten.clang"
  },
  "schemaVersion": "3.4.1",
  "updatedAt": "2021-06-28T02:33:07.201Z",
  "devdoc": {
    "kind": "dev",
    "methods": {},
    "version": 1
  },
  "userdoc": {
    "kind": "user",
    "methods": {},
    "version": 1
  }
}