{
  "contractName": "MyDefiProject",
  "abi": [
    {
      "inputs": [
        {
          "internalType": "address",
          "name": "_comptroller",
          "type": "address"
        },
        {
          "internalType": "address",
          "name": "_priceOracle",
          "type": "address"
        }
      ],
      "stateMutability": "nonpayable",
      "type": "constructor"
    },
    {
      "inputs": [],
      "name": "comptroller",
      "outputs": [
        {
          "internalType": "contract ComptrollerInterface",
          "name": "",
          "type": "address"
        }
      ],
      "stateMutability": "view",
      "type": "function",
      "constant": true
    },
    {
      "inputs": [],
      "name": "priceOracle",
      "outputs": [
        {
          "internalType": "contract PriceOracleInterface",
          "name": "",
          "type": "address"
        }
      ],
      "stateMutability": "view",
      "type": "function",
      "constant": true
    },
    {
      "inputs": [
        {
          "internalType": "address",
          "name": "cTokenAddress",
          "type": "address"
        },
        {
          "internalType": "uint256",
          "name": "underlyingAmount",
          "type": "uint256"
        }
      ],
      "name": "supply",
      "outputs": [],
      "stateMutability": "nonpayable",
      "type": "function"
    }
  ],
  "bytecode": "0x608060405234801561001057600080fd5b506040516104c53803806104c58339818101604052604081101561003357600080fd5b810190808051906020019092919080519060200190929190505050816000806101000a81548173ffffffffffffffffffffffffffffffffffffffff021916908373ffffffffffffffffffffffffffffffffffffffff16021790555080600160006101000a81548173ffffffffffffffffffffffffffffffffffffffff021916908373ffffffffffffffffffffffffffffffffffffffff16021790555050506103e5806100e06000396000f3fe608060405234801561001057600080fd5b50600436106100415760003560e01c80632630c12f146100465780635fe3b5671461007a578063f2b9fdb8146100ae575b600080fd5b61004e6100fc565b604051808273ffffffffffffffffffffffffffffffffffffffff16815260200191505060405180910390f35b610082610122565b604051808273ffffffffffffffffffffffffffffffffffffffff16815260200191505060405180910390f35b6100fa600480360360408110156100c457600080fd5b81019080803573ffffffffffffffffffffffffffffffffffffffff16906020019092919080359060200190929190505050610146565b005b600160009054906101000a900473ffffffffffffffffffffffffffffffffffffffff1681565b60008054906101000a900473ffffffffffffffffffffffffffffffffffffffff1681565b600082905060008173ffffffffffffffffffffffffffffffffffffffff16636f307dc36040518163ffffffff1660e01b815260040160206040518083038186803b15801561019357600080fd5b505afa1580156101a7573d6000803e3d6000fd5b505050506040513d60208110156101bd57600080fd5b810190808051906020019092919050505090508073ffffffffffffffffffffffffffffffffffffffff1663095ea7b385856040518363ffffffff1660e01b8152600401808373ffffffffffffffffffffffffffffffffffffffff16815260200182815260200192505050602060405180830381600087803b15801561024157600080fd5b505af1158015610255573d6000803e3d6000fd5b505050506040513d602081101561026b57600080fd5b81019080805190602001909291905050505060008273ffffffffffffffffffffffffffffffffffffffff1663a0712d68856040518263ffffffff1660e01b815260040180828152602001915050602060405180830381600087803b1580156102d257600080fd5b505af11580156102e6573d6000803e3d6000fd5b505050506040513d60208110156102fc57600080fd5b8101908080519060200190929190505050905060008114610368576040517f08c379a00000000000000000000000000000000000000000000000000000000081526004018080602001828103825260408152602001806103706040913960400191505060405180910390fd5b505050505056fe63546f6b656e236d696e742829206661696c65642e2073656520436f6d706f756e64204572726f725265706f727465722e736f6c20666f722064657461696c73a2646970667358221220650eab40c78dfb347a803355c68ca8afee8184f5933302935d948ace0ad70a9164736f6c63430007030033",
  "immutableReferences": {},
  "source": "pragma solidity ^0.7.3;\nimport \"@openzeppelin/contracts/token/ERC20/IERC20.sol\";\nimport \"./interfaces/CTokenInterface.sol\";\nimport \"./interfaces/ComptrollerInterface.sol\";\nimport \"./interfaces/PriceOracleInterface.sol\";\n\ncontract MyDefiProject {\n    ComptrollerInterface public comptroller;\n    PriceOracleInterface public priceOracle;\n\n    constructor(address _comptroller, address _priceOracle) {\n        comptroller = ComptrollerInterface(_comptroller);\n        priceOracle = PriceOracleInterface(_priceOracle);\n    }\n\n    function supply(address cTokenAddress, uint256 underlyingAmount) public {\n        CTokenInterface cToken = CTokenInterface(cTokenAddress);\n        address underlyingAddress = cToken.underlying();\n        IERC20(underlyingAddress).approve(cTokenAddress, underlyingAmount);\n        uint256 result = cToken.mint(underlyingAmount);\n        require(\n            result == 0,\n            \"cToken#mint() failed. see Compound ErrorReporter.sol for details\"\n        );\n    }\n}\n",
  "sourcePath": "/Users/fabriciopolicarpo/Desktop/Projects/eat-the-blocks/fundamentals/homework/contracts/MyDefiProject.sol",
  "compiler": {
    "name": "solc",
    "version": "0.7.3+commit.9bfce1f6.Emscripten.clang"
  },
  "schemaVersion": "3.4.1",
  "updatedAt": "2021-07-06T03:05:08.559Z",
  "networkType": "ethereum",
  "devdoc": {
    "kind": "dev",
    "methods": {},
    "version": 1
  },
  "userdoc": {
    "kind": "user",
    "methods": {},
    "version": 1
  }
}